:1000000013C037C036C035C034C033C032C031C071
:1000100030C02FC02EC06BC1A0C12BC02AC029C0C8
:1000200028C027C026C0620211241FBECFE5D4E03D
:10003000DEBFCDBF10E0A0E6B0E0E2E6F6E002C031
:1000400005900D92A237B107D9F721E0A2E7B0E001
:1000500001C01D92AC31B207E1F710E0C8E2D0E078
:1000600003C02297FE01F7D2C632D107D1F77FD065
:10007000F6C2C6CF8F9A87B3876087BB0895979AD9
:10008000C09AC19AC29A24E6AC01249FC001259F60
:10009000900D1124181619066CF420E030E0E9EFF9
:1000A000F0E03197F1F700C000002F5F3F4F2817B5
:1000B0003907A9F7C198C29808959798C098C19A2E
:1000C000C29A24E6AC01249FC001259F900D112403
:1000D000181619066CF420E030E0E9EFF0E03197F3
:1000E000F1F700C000002F5F3F4F28173907A9F72D
:1000F000C198C29808959798C09AC19AC29A22E36B
:10010000AC01249FC001259F900D112418161906DB
:100110006CF420E030E0E9EFF0E03197F1F700C057
:1001200000002F5F3F4F28173907A9F7C198C298E1
:100130000895979AC098C19AC29A22E3AC01249F6D
:10014000C001259F900D1124181619066CF420E0AB
:1001500030E0E9EFF0E03197F1F700C000002F5FE9
:100160003F4F28173907A9F7C198C298089517D0AB
:100170001DD080DF1BD08CE291E081DF17D08AE5B3
:1001800090E0B9DF13D08AE590E0D3DF0FD088ECA0
:1001900090E075DF0BD08CE291E08FDFFFCF40E87D
:1001A00055E260E070E082E790E00DC182E790E008
:1001B0000DD0892B29F082E790E031D08093600048
:1001C0006091600082E790E012D2F0CFFC012485BC
:1001D0003585F901E05CFF4F808191813296208165
:1001E0003181821B930B8F7399270895FC018485BD
:1001F0009585FC01E05CFF4F408151813296208162
:1002000031814217530741F00190F081E02DE80F52
:10021000F91F808190E008958FEF9FEF0895FC0112
:1002200084859585FC01E05CFF4F408151813296C9
:10023000208131814217530779F0A081B181A80F45
:10024000B91F8C91208131812F5F3F4F2F7333274E
:100250003183208390E008958FEF9FEF0895FC0194
:1002600081A1882329F0A489B5898C9186FFFBCFD1
:1002700011A20895CF93DF93FC0126853785D9011C
:10028000A05CBF4F8D919C91119701968F73992718
:10029000E901CE5BDF4F4881598184179507D9F377
:1002A0000D90BC91A02DA20FB31F6C93A685B785AE
:1002B000A05CBF4F11969C938E93A689B7892C9111
:1002C00081E090E0078C02C0880F991F0A94E2F742
:1002D000282B2C9381E081A30488F589E02D80816F
:1002E0008064808381E090E0DF91CF9108951F9238
:1002F0000F920FB60F9211242F933F934F938F932A
:100300009F93EF93FF935A991BC04CB180911801B2
:100310009091190101968F73992720911A013091BC
:100320001B018217930769F0E0911801F091190100
:10033000E852FF4F4083909319018093180101C048
:100340008CB1FF91EF919F918F914F913F912F91A0
:100350000F900FBE0F901F9018951F920F920FB61F
:100360000F9211242F933F938F939F93EF93FF93BB
:100370002091D4003091D5008091D6009091D70083
:100380002817390711F4559813C0E091D600F09161
:10039000D700EC56FF4F20818091D6009091D70076
:1003A00001968F7399279093D7008093D6002CB92C
:1003B000FF91EF919F918F913F912F910F900FBEE1
:1003C0000F901F901895CF92DF92EF92FF92CF93EC
:1003D000DF93EC016A017B01411581EE580761054D
:1003E0007105F1F0EC89FD8981E090E008A002C080
:1003F000880F991F0A94E2F7808360E079E08DE32B
:1004000090E0A701960103D121503109410951091A
:100410005695479537952795211580E1380790F037
:10042000EC89FD89108260E874E88EE190E0A70114
:100430009601EDD021503109410951095695479552
:1004400037952795E889F9893083EA89FB892083E4
:1004500019A2EE89FF89408181E090E09C010C8C1B
:1004600002C0220F331F0A94E2F7422B4083EE8929
:10047000FF8940819C010D8C02C0220F331F0A941A
:10048000E2F7422B4083EE89FF8940819C010E8C6C
:1004900002C0220F331F0A94E2F7422B4083EE89F9
:1004A000FF8920810F8C02C0880F991F0A94E2F700
:1004B000809582238083DF91CF91FF90EF90DF9032
:1004C000CF900895109275001092740088EE93E01A
:1004D000A0E0B0E08093760090937700A09378003E
:1004E000B093790085E690E090937300809372005A
:1004F00088ED90E090937F0080937E0084E990E007
:10050000909381008093800080E490E0909383003A
:100510008093820029E230E03093850020938400AC
:100520002BE230E030938700209386002AE230E00F
:10053000309389002093880090938B0080938A00E9
:100540008CE290E090938D0080938C0084E0809307
:100550008E0083E080938F0087E08093900085E099
:100560008093910081E0809392000895CF92DF9272
:10057000EF92FF920F931F93CF93DF936C017A0159
:10058000EB01E60EF71E00E010E0CE15DF0561F08E
:100590006991D601ED91FC910190F081E02DC601A9
:1005A0000995080F191FF1CFC801DF91CF911F9155
:1005B0000F91FF90EF90DF90CF900895DC01ED91C7
:1005C000FC910190F081E02D09940F931F93CF933C
:1005D000DF93EC016DE0F2DF8C016AE0CE01EEDF2B
:1005E000800F911FDF91CF911F910F9108950F936D
:1005F0001F93CF93DF93EC01E1DF8C01CE01E5DFA8
:10060000800F911FDF91CF911F910F910895A1E26B
:100610001A2EAA1BBB1BFD010DC0AA1FBB1FEE1F7C
:10062000FF1FA217B307E407F50720F0A21BB30BC7
:10063000E40BF50B661F771F881F991F1A9469F743
:1006400060957095809590959B01AC01BD01CF019F
:100650000895EE0FFF1F0590F491E02D0994F89492
:02066000FFCFCA
:100662006B000000003A01B602E6000F01F6002F0F
:02067200010085
:00000001FF
